:100000000C9446000C945D000C945D000C945D0013
:100010000C945D000C945D000C945D000C945D00EC
:100020000C945D000C945D000C945D000C945D00DC
:100030000C945D000C945D000C945D000C945D00CC
:100040000C945D000C945D000C945D000C945D00BC
:100050000C945D000C945D000C945D000C945D00AC
:100060000C945D000C945D000C945D000C945D009C
:100070000C945D000C945D000C945D000C945D008C
:100080000C945D000C945D000C945D0011241FBE67
:10009000CFEFD0E1DEBFCDBF11E0A0E0B1E0E6E1FF
:1000A000F2E000E00BBF02C007900D92A434B1074C
:1000B000D9F70E9490000C9409010C940000109252
:1000C000900083E389B988E18AB986E0809395003E
:1000D00008955D9BFECF8CB90895EF92FF920F9328
:1000E0001F93CF93DF93EC018C01E62EF12C07C018
:1000F000F80181918F01882341F00E946900C801B5
:100100008C1B9D0B8E159F059CF3DF91CF911F914A
:100110000F91FF90EF9008955F9BFECF8CB10895F3
:10012000CF93DF93CDB7DEB7C454D1090FB6F8949F
:10013000DEBF0FBECDBF87E1E0E0F1E0DE01589603
:1001400001900D928A95E1F787E1E7E1F1E08E01F8
:100150000F5F1F4FD80101900D928A95E1F785E15D
:10016000EEE2F1E0DE019F9601900D928A95E1F7B3
:100170008FEF8ABB1BBA0E945F00E02ED12E01E0F8
:1001800010E0FF24FA9467E1CE0148960E946D00CA
:1001900067E18E2D9D2D0E946D0065E1CE018F9649
:1001A0000E946D000E948C00282F25962FAF259766
:1001B0000E94690025962FAD2597213359F4FBBA8B
:1001C0002FE38DE093E0215080409040E1F700C0A4
:1001D000000017C02233B1F41BBA20E030E0A801C0
:1001E000022E01C0440F0A94EAF74BBB81E19AE763
:1001F0000197F1F700C000002F5F3F4F2830310515
:1002000071F71BBA8DE00E9469008AE00E946900C4
:06021000BACFF894FFCF05
:10021600312E204C4544B5BFBDC320C1A1B5EE204B
:10022600544553540D0A00322E204C4544B5BFBDEB
:10023600C320C1A1B5EE20544553540D0A00496EA2
:10024600707574206E756D62657228312D322920A5
:040256003A2000004A
:00000001FF
