:100000000C9446000C945D000C945D000C945D0013
:100010000C945D000C945D000C945D000C945D00EC
:100020000C945D000C945D000C945D000C945D00DC
:100030000C945D000C945D000C945D000C945D00CC
:100040000C945D000C945D000C945D000C945D00BC
:100050000C945D000C945D000C945D000C945D00AC
:100060000C945D000C945D000C945D000C945D009C
:100070000C945D000C945D000C945D000C945D008C
:100080000C945D000C945D000C945D0011241FBE67
:10009000CFEFD0E1DEBFCDBF11E0A0E0B1E0ECE8F2
:1000A000F2E000E00BBF02C007900D92A034B10750
:1000B000D9F70E9428010C9444010C9400001ABA4C
:1000C0008FE084BB08958FEF8ABB8FE084BB0895D7
:1000D000AA9AA998A89890E19A95F1F700C08BBBCD
:1000E00080E18A95F1F700C0AA980895AA9AA99884
:1000F000A89A90E19A95F1F700C08BBB80E18A95B0
:10010000F1F700C0AA9889EF90E00197F1F700C0DD
:10011000000008951F93CF93DF93EC0110E003C01C
:100120000E9476001F5FFE01E10FF11D80818111A9
:10013000F7CFDF91CF911F910895AA9AA99AA89815
:1001400080E18A95F1F700C089B390E19A95F1F7C3
:1001500000C0AA9808950E945F000E949D0087FD3C
:10016000FCCF0C946300882329F0813029F4862F7A
:10017000805C03C0862F01C080E080680E94680018
:1001800083EF91E00197F1F700C00000089581E04E
:100190000E94680083EF91E00197F1F700C0000032
:1001A000089582E00E94680083EF91E00197F1F7E3
:1001B00000C00000089588E10E94680083EF91E08C
:1001C0000197F1F700C0000008958CE10E946800DB
:1001D00083EF91E00197F1F700C00000089580E1FE
:1001E0000E94680083EF91E00197F1F700C00000E2
:1001F000089584E10E94680083EF91E00197F1F790
:1002000000C00000089588E30E94680083EF91E039
:100210000197F1F700C000008EE00E94680083EFB4
:1002200091E00197F1F700C0000081E00E946800B2
:1002300083EF91E00197F1F700C0000086E00E9493
:10024000680083EF91E00197F1F700C00000089586
:100250000E9463000E9403010E94AB0060E080E006
:100260000E94B3000E94AB0080E091E00E948A00EF
:100270000E94DB002FE38DE093E02150804090400E
:0C028000E1F700C00000F4CFF894FFCFBD
:10028C0059656F6E73756E6720556E6976657273FE
:10029C00697479204469676974616C20456C656385
:1002AC0074726F6E696321214465706572746D653B
:1002BC006E74204877616E6720496E204B756B0019
:00000001FF
