:100000000C9446000C9465000C9465000C946500FB
:100010000C9465000C9465000C9465000C94CF0062
:100020000C94A0000C9465000C9465000C94650081
:100030000C9465000C9465000C9465000C946700AA
:100040000C9465000C9465000C9465000C9465009C
:100050000C9465000C9465000C9465000C9465008C
:100060000C9465000C9465000C9465000C9465007C
:100070000C9465000C9465000C9465000C9465006C
:100080000C9465000C9465000C94650011241FBE4F
:10009000CFEFD0E1DEBFCDBF11E0A0E0B1E0E2E5FF
:1000A000F2E100E00BBF02C007900D92A231B10750
:1000B000D9F721E0A2E1B1E001C01D92A631B2075B
:1000C000E1F70E94FA000C9427090C9400001F929B
:1000D0000F9200905F000F9211248F939F93CF9304
:1000E000DF93CDB7DEB78091140190911501019691
:1000F0009093150180931401DF91CF919F918F917F
:100100000F9000925F000F901F901895CF93DF9390
:1001100000D0CDB7DEB79A83898310921501109273
:1001200014010000809114019091150129813A81F8
:1001300082179307B8F30F900F90DF91CF91089536
:100140001F920F9200905F000F9211248F939F9344
:10015000CF93DF93CDB7DEB7809112019091130159
:1001600049968F3F910509F054F4809112019091C6
:1001700013014996909313018093120106C08FEFEB
:1001800090E09093130180931201DF91CF919F91A2
:100190008F910F9000925F000F901F9018951F9203
:1001A0000F9200905F000F9211248F939F93CF9333
:1001B000DF93CDB7DEB7809112019091130149977B
:1001C000992354F0809112019091130149979093D3
:1001D00013018093120104C01092130110921201B6
:1001E000DF91CF919F918F910F9000925F000F90C0
:1001F0001F9018950F931F93CF93DF93CDB7DEB762
:10020000C254D1090FB6F894DEBF0FBECDBF8AE04D
:10021000E0E0F1E0DE01D99601900D928A95E1F7D8
:100220008AE390E02FEFFC0120838BE390E0FC0158
:10023000108284E390E02FE0FC01208385E390E0CE
:100240002FE0FC01208387E390E02FEFFC01208367
:1002500082E290E0FC01108289E590E020ECFC0154
:1002600020838AE590E020EFFC01208383E590E085
:1002700029EEFC01208381E590E0FC01108287E5F6
:1002800090E022E0FC012083789481E590E02091C9
:10029000120130911301FC01208380E090E0A0E87E
:1002A000BFE389839A83AB83BC8320E030E04AE7D5
:1002B00055E469817A818B819C810E946D05DC0106
:1002C000CB018D839E83AF83B88720E030E040E888
:1002D0005FE36D817E818F8198850E94B0068823BF
:1002E0002CF481E090E09A87898742C020E03FEFBC
:1002F0004FE757E46D817E818F8198850E94520679
:10030000181664F520E030E040E251E469817A811A
:100310008B819C810E946D05DC01CB01BC01CD016C
:100320000E948803DC01CB019A87898712C080E98B
:1003300091E09C878B878B859C858C01C8010197F8
:10034000F1F78C011C870B8789859A8501979A871D
:10035000898789859A85009751F717C06D817E81BD
:100360008F8198850E948803DC01CB019A87898759
:1003700089859A859E878D878D859E858C01F8015C
:100380003197F1F78F011E870D8785E390E02DE00F
:10039000FC0120832BE330E0809112019091130146
:1003A00044E650E0BA010E94C808AB01CA014AE025
:1003B00050E0BA010E94C808AE01475C5F4F840F4D
:1003C000951FFC018081F901808380E090E0A0E826
:1003D000BFE38F87988BA98BBA8B20E030E04AE788
:1003E00055E46F85788989899A890E946D05DC01B9
:1003F000CB018B8B9C8BAD8BBE8B20E030E040E83B
:100400005FE36B897C898D899E890E94B006882371
:100410002CF481E090E0988F8F8B42C020E03FEF7A
:100420004FE757E46B897C898D899E890E9452062B
:10043000181664F520E030E040E251E46F857889D9
:1004400089899A890E946D05DC01CB01BC01CD012F
:100450000E948803DC01CB01988F8F8B12C080E94A
:1004600091E09A8F898F898D9A8D8C01C8010197AF
:10047000F1F78C011A8F098F8F89988D0197988FCA
:100480008F8B8F89988D009751F717C06B897C8966
:100490008D899E890E948803DC01CB01988F8F8B08
:1004A0008F89988D9C8F8B8F8B8D9C8D8C01F80103
:1004B0003197F1F78F011C8F0B8F85E390E02BE0D4
:1004C000FC0120832BE330E0809112019091130115
:1004D0004AE050E0BA010E94C808AB01CA014AE0F4
:1004E00050E0BA010E94C808AE01475C5F4F840F1C
:1004F000951FFC018081F901808380E090E0A0E8F5
:10050000BFE38D8F9E8FAF8FB8A320E030E04AE726
:1005100055E46D8D7E8D8F8D98A10E946D05DC0157
:10052000CB0189A39AA3ABA3BCA320E030E040E8B1
:100530005FE369A17AA18BA19CA10E94B0068823E8
:100540002CF481E090E09EA38DA342C020E03FEF19
:100550004FE757E469A17AA18BA19CA10E945206A2
:10056000181664F520E030E040E251E46D8D7E8D98
:100570008F8D98A10E946D05DC01CB01BC01CD01DE
:100580000E948803DC01CB019EA38DA312C080E9E9
:1005900091E098A78FA38FA198A58C01C80101971E
:1005A000F1F78C0118A70FA38DA19EA101979EA31F
:1005B0008DA38DA19EA1009751F717C069A17AA1C3
:1005C0008BA19CA10E948803DC01CB019EA38DA37B
:1005D0008DA19EA19AA789A789A59AA58C01F8014A
:1005E0003197F1F78F011AA709A785E390E027E07B
:1005F000FC0120832BE330E08091120190911301E4
:100600004AE050E0BA010E94C808AE01475C5F4F63
:10061000840F951FFC018081F901808380E090E0C8
:10062000A0E8BFE38BA79CA7ADA7BEA720E030E062
:100630004AE755E46BA57CA58DA59EA50E946D0596
:10064000DC01CB018FA798ABA9ABBAAB20E030E0BF
:1006500040E85FE36FA578A989A99AA90E94B0062E
:1006600088232CF481E090E09CAB8BAB42C020E06F
:100670003FEF4FE757E46FA578A989A99AA90E948F
:100680005206181664F520E030E040E251E46BA514
:100690007CA58DA59EA50E946D05DC01CB01BC014A
:1006A000CD010E948803DC01CB019CAB8BAB12C057
:1006B00080E991E09EAB8DAB8DA99EA98C01C8010C
:1006C0000197F1F78C011EAB0DAB8BA99CA901978B
:1006D0009CAB8BAB8BA99CA9009751F718C06FA559
:1006E00078A989A99AA90E948803DC01CB019CAB57
:1006F0008BAB8BA99CA998AF8FAB8FA998AD8C01C0
:10070000F8013197F1F78F0118AF0FABBECDBDCD1A
:10071000CF92DF92EF92FF920F931F936B017C01B8
:1007200020E030E040E05FE40E94810687FD0EC0DB
:1007300020E030E040E05FE4C701B6010E943D05E3
:100740000E94DF068B019C01305806C0C701B6012C
:100750000E94DF068B019C01B801C9011F910F9116
:10076000FF90EF90DF90CF900895A4E0B0E0EBEB26
:10077000F3E00C94F2087C016A01FC018081823074
:1007800008F44AC1FB019081923008F442C18430E0
:1007900079F4943009F040C1F7019181FB01818126
:1007A000981709F439C1AAE0EA2EA1E0FA2E34C163
:1007B000943009F42EC1923091F4823009F02CC1AA
:1007C00088E0F701DA0101900D928A95E1F7FB01CB
:1007D0008181F70191818923FA0181831CC18230D3
:1007E00009F417C1F70182819381FB01A281B381D2
:1007F000F7010481158126813781FB018480958072
:10080000A680B780FC01EA1BFB0BAF01F7FF04C019
:10081000442755274E1B5F0B403251050CF074C026
:100820001E161F06B4F524013501042E04C076946B
:100830006794579447940A94D2F749825A826B82FC
:100840007C82412C512C3201439404C0440C551C31
:10085000661C771C4A95D2F741E0441A510861089A
:100860007108482059206A207B20812C912C54014A
:10087000839445284628472819F4812C912C54014B
:1008800049805A806B807C8084289528A628B728C8
:1008900046C0EF2B09F443C0840F951F280139018E
:1008A000042E04C076946794579447940A94D2F720
:1008B00049825A826B827C82412C512C32014394B2
:1008C00004C0440C551C661C771C4A95D2F741E0C5
:1008D000441A510861087108402251226222732291
:1008E00001E010E020E030E045284628472819F4D0
:1008F00000E010E0980149805A806B807C800429D8
:100900001529262937290BC0A817B90724F4812CEB
:10091000912C540104C0CD0100E010E09801F701D2
:100920004181FB015181451709F446C0442349F038
:1009300024013501401A510A620A730A93018201A7
:1009400004C0081919092A093B0937FD05C0F60139
:100950001182938382830CC041E0F601418393832B
:10096000828330952095109501951F4F2F4F3F4F53
:1009700004831583268337830EC0880F991FAA1F0F
:10098000BB1FF60184839583A683B78382819381FD
:10099000019793838283F60184819581A681B78133
:1009A000AC01BD0141505109610971094F3F5F4FD1
:1009B0006F4F7F4310F30CC0F60141839383828312
:1009C000080D191D2A1D3B1D0483158326833783BB
:1009D00083E0F6018083448155816681778177FFCA
:1009E0001AC0DB01CA0181709927AA27BB27769517
:1009F000679557954795842B952BA62BB72B84830A
:100A00009583A683B78382819381019693838283A2
:100A100002C07B0101C07601C7012496E0E10C947D
:100A20000E09A0E2B0E0E7E1F5E00C9400096D8F5B
:100A30007E8F8F8F98A3298F3A8F4B8F5C8FBE014B
:100A40006F5E7F4FCE014D960E94F807BE01675F33
:100A50007F4FCE0149960E94F807AE014F5F5F4F6E
:100A6000BE01675F7F4FCE0141960E94B5030E9491
:100A70002E07A096E2E00C941C09A0E2B0E0E3E4AB
:100A8000F5E00C9400096D8F7E8F8F8F98A3298FCE
:100A90003A8F4B8F5C8FBE016F5E7F4FCE014D96BC
:100AA0000E94F807BE01675F7F4FCE0149960E9402
:100AB000F8078A8591E089278A87AE014F5F5F4FEB
:100AC000BE01675F7F4FCE0141960E94B5030E9431
:100AD0002E07A096E2E00C941C09A0E2B0E0E3E748
:100AE000F5E00C94F2086D8F7E8F8F8F98A3298F7D
:100AF0003A8F4B8F5C8FBE016F5E7F4FCE014D965C
:100B00000E94F807BE01675F7F4FCE0149960E94A1
:100B1000F8079989923008F412C08985823008F468
:100B20001AC0943021F4823009F4B4C008C0843073
:100B300021F4923009F4AEC00EC0923051F481E03D
:100B40002A899A85291301C080E08A8BCE014196BB
:100B5000A3C0823051F481E02A899A85291301C00B
:100B600080E08A87CE01099697C08D889E88AF88DD
:100B7000B88C0D851E852F853889E0E2F0E080E095
:100B800090E0DC01C12CD12C760140E050E0BA01AC
:100B900080FE18C0400F511F621F731F8C0D9D1DDA
:100BA000AE1DBF1D412C512C3201439440175107FB
:100BB0006207730718F0412C512C3201840D951DEA
:100BC000A61DB71DCC0CDD1CEE1CFF1C37FF02C0A0
:100BD0006894C0F8000F111F221F331FB694A7940A
:100BE000979487943197A1F62B893C89EB85FC85F6
:100BF0002E0F3F1F2E5F3F4F3C832B8321E0EA895E
:100C00003A85E31301C020E02A83EB81FC810CC00C
:100C100080FF05C076956795579547957068B6959E
:100C2000A795979587953196B7FDF2CF9F010CC098
:100C3000880F991FAA1FBB1F77FD8160440F551FA6
:100C4000661F771F215031090097A105E0E4BE0718
:100C500078F32B833C838C019D010F77112722278A
:100C60003327003411052105310559F487FD09C0EA
:100C7000452B462B472B29F0805C9F4FAF4FBF4F32
:100C800080788D839E83AF83B88783E08983CE018C
:100C9000019602C08AE091E00E942E07A096E0E152
:100CA0000C940E09A8E1B0E0E8E5F6E00C94000928
:100CB0006D8B7E8B8F8B988F298B3A8B4B8B5C8BBC
:100CC000BE01675F7F4FCE0145960E94F807BE01C7
:100CD0006F5F7F4FCE0141960E94F8078985823071
:100CE00058F08981823040F0BE016F5F7F4FCE01A6
:100CF00009960E94670801C08FEF6896E2E00C94A5
:100D00001C09A8E1B0E0E7E8F6E00C9400096D8B5F
:100D10007E8B8F8B988F298B3A8B4B8B5C8BBE0194
:100D2000675F7F4FCE0145960E94F807BE016F5F57
:100D30007F4FCE0141960E94F8078985823058F096
:100D40008981823040F0BE016F5F7F4FCE010996EE
:100D50000E94670801C08FEF6896E2E00C941C09BE
:100D6000A8E1B0E0E6EBF6E00C9400096D8B7E8B19
:100D70008F8B988F298B3A8B4B8B5C8BBE01675F77
:100D80007F4FCE0145960E94F807BE016F5F7F4FEF
:100D9000CE0141960E94F8078985823058F08981FA
:100DA000823040F0BE016F5F7F4FCE0109960E94F6
:100DB000670801C081E06896E2E00C941C09ACE091
:100DC000B0E0E5EEF6E00C94FE0869877A878B8741
:100DD0009C87BE016F5F7F4FCE0109960E94F80786
:100DE0008981823091F1823080F1843041F48A81AE
:100DF000882331F100E010E020E030E829C02B81A9
:100E00003C8137FD22C02F3131058CF78EE190E017
:100E1000821B930B0D811E812F81388504C036956E
:100E20002795179507958A95D2F78A81882381F0AF
:100E300030952095109501951F4F2F4F3F4F08C0BB
:100E40000FEF1FEF2FEF3FE703C000E010E0980126
:100E5000B801C9012C96E4E00C941A090F931F9372
:100E6000CF93DF93DC0114964D915D916D917C9150
:100E700017971196EC9111978C91823020F4606154
:100E80008FEF90E0A6C0843009F49EC0823009F450
:100E900095C0411551056105710509F492C012967E
:100EA0002D913C91139722388FEF38070CF058C0E2
:100EB000C2E8DFEFC21BD30BCA31D1056CF58A0142
:100EC0009B010C2E04C036952795179507950A941B
:100ED000D2F781E090E0A0E0B0E00C2E04C0880FD3
:100EE000991FAA1FBB1F0A94D2F70197A109B10944
:100EF00084239523A623B72341E050E060E070E00F
:100F0000892B8A2B8B2B19F440E050E0BA01402B3F
:100F1000512B622B732B03C040E050E0BA01DB0180
:100F2000CA018F779927AA27BB2780349105A1058D
:100F3000B10539F447FF09C0405C5F4F6F4F7F4FE9
:100F400004C0415C5F4F6F4F7F4F81E090E04115DF
:100F50005105610520E4720748F580E090E026C065
:100F6000203831058CF5DB01CA018F779927AA2734
:100F7000BB2780349105A105B10539F447FF09C0AD
:100F8000405C5F4F6F4F7F4F04C0415C5F4F6F4FBE
:100F90007F4F77FD04C0C90181589F4F07C07695E8
:100FA000679557954795C90180589F4F97E076956B
:100FB0006795579547959A95D1F70BC080E090E0DB
:100FC00005C080E090E005C08FEF90E040E050E089
:100FD000BA01982F9695E0FB97F9362F80FB37F9E9
:100FE000642F752F832FDF91CF911F910F9108955B
:100FF000CF92DF92EF92DC01FB01CC901196DC9056
:10100000119712968C9112973FE7E32EE8226E2DEE
:10101000A60170E0982F991F9927991F13962C917C
:10102000822F880F892B90E027FB222720F921832C
:10103000009729F5411551056105710511F482E00C
:1010400027C082E89FEF9383828327E0440F551FD8
:10105000661F771F2A95D1F783E0808309C0440F6C
:10106000551F661F771F8281938101979383828327
:1010700041155105610580E4780788F320C08F3F52
:10108000910579F4411551056105710519F484E064
:10109000808319C0E4FE03C081E0808310C0108209
:1010A0000EC08F5791099383828383E0808387E00A
:1010B000440F551F661F771F8A95D1F770644483CC
:1010C000558366837783EF90DF90CF900895CF9319
:1010D000FC01DB019081923008F452C08C91823087
:1010E00008F44EC0943071F4843039F411962C9188
:1010F00030E08181281B310948C08181882309F4AF
:101100003FC03BC0843029F411968C91811138C0C6
:1011100034C0923019F48230B9F735C0823069F3A7
:10112000C18111968C911197C8131DC02281338102
:1011300012968D919C911397821793070CF413C00C
:10114000281739070CF417C04481558166817781CF
:1011500014968D919D910D90BC91A02D84179507AB
:10116000A607B70718F4C11108C00AC048175907E5
:101170006A077B0740F4C11103C02FEF3FEF05C0A2
:1011800021E030E002C020E030E0C901CF910895B5
:1011900097FB072E16F4009407D077FD09D00E9424
:1011A000DC0807FC05D03EF4909581959F4F08958B
:1011B000709561957F4F0895AA1BBB1B51E107C035
:1011C000AA1FBB1FA617B70710F0A61BB70B881FD7
:1011D000991F5A95A9F780959095BC01CD01089566
:1011E0002F923F924F925F926F927F928F929F9237
:1011F000AF92BF92CF92DF92EF92FF920F931F9325
:10120000CF93DF93CDB7DEB7CA1BDB0B0FB6F894D5
:10121000DEBF0FBECDBF09942A88398848885F8415
:101220006E847D848C849B84AA84B984C884DF8086
:10123000EE80FD800C811B81AA81B981CE0FD11D6A
:101240000FB6F894DEBF0FBECDBFED010895F89440
:02125000FFCFCE
:101252003F065B4F666D7D277F6F00000000000038
:0212620000008A
:00000001FF
