:100000000C9446000C945D000C945D000C945D0013
:100010000C945D000C945D000C945D000C945D00EC
:100020000C945D000C945D000C945D000C945D00DC
:100030000C945D000C945D000C945D000C945D00CC
:100040000C945D000C945D000C945D000C945D00BC
:100050000C945D000C945D000C945D000C945D00AC
:100060000C945D000C945D000C945D000C945D009C
:100070000C945D000C945D000C945D000C945D008C
:100080000C945D000C945D000C945D0011241FBE67
:10009000CFEFD0E1DEBFCDBF11E0A0E0B1E0E0E006
:1000A000F1E100E00BBF02C007900D92A831B1074B
:1000B000D9F70E945F000C947E080C9400000F9307
:1000C0001F93CF93DF93CDB7DEB7EB970FB6F894BE
:1000D000DEBF0FBECDBF1B821A828AE390E02FEFF6
:1000E000FC0120838BE390E0FC01108284E390E02C
:1000F0002FE0FC01208385E390E02FE0FC012083CA
:1001000001C00000198248C285E390E02EE0FC01A6
:1001100020832BE330E08A819B8148EE53E0BA01D3
:100120000E941F08AB01CA014AE050E0BA010E94D8
:100130001F0880509F4FFC018081F901808380E07F
:1001400090E0A0EAB0E48C839D83AE83BF8320E07F
:1001500030E04AE755E46C817D818E819F810E9469
:10016000C404DC01CB0188879987AA87BB8720E07C
:1001700030E040E85FE3688579858A859B850E9449
:10018000070688232CF481E090E09D878C8742C08D
:1001900020E03FEF4FE757E4688579858A859B85A6
:1001A0000E94A905181664F520E030E040E251E411
:1001B0006C817D818E819F810E94C404DC01CB0112
:1001C000BC01CD010E94DF02DC01CB019D878C8741
:1001D00012C080E991E09F878E878E859F858C0174
:1001E000C8010197F1F78C011F870E878C859D85CB
:1001F00001979D878C878C859D85009751F717C047
:10020000688579858A859B850E94DF02DC01CB01A8
:100210009D878C878C859D85998B888B888999890A
:100220008C01F8013197F1F78F01198B088B85E369
:1002300090E02DE0FC0120832BE330E08A819B815C
:1002400044E650E0BA010E941F08AB01CA014AE02F
:1002500050E0BA010E941F0880509F4FFC0180812E
:10026000F901808380E090E0A0EAB0E48A8B9B8B68
:10027000AC8BBD8B20E030E04AE755E46A897B898E
:100280008C899D890E94C404DC01CB018E8B9F8BDD
:10029000A88FB98F20E030E040E85FE36E897F8966
:1002A000888D998D0E94070688232CF481E090E0C8
:1002B0009B8F8A8F42C020E03FEF4FE757E46E8963
:1002C0007F89888D998D0E94A905181664F520E014
:1002D00030E040E251E46A897B898C899D890E94E3
:1002E000C404DC01CB01BC01CD010E94DF02DC01B2
:1002F000CB019B8F8A8F12C080E991E09D8F8C8FFC
:100300008C8D9D8D8C01C8010197F1F78C011D8F9B
:100310000C8F8A8D9B8D01979B8F8A8F8A8D9B8DE9
:10032000009751F717C06E897F89888D998D0E943B
:10033000DF02DC01CB019B8F8A8F8A8D9B8D9F8F83
:100340008E8F8E8D9F8D8C01F8013197F1F78F0183
:100350001F8F0E8F85E390E02BE0FC0120832BE3C1
:1003600030E08A819B814AE050E0BA010E941F0878
:10037000AB01CA014AE050E0BA010E941F08805058
:100380009F4FFC018081F901808380E090E0A0EA2A
:10039000B0E488A399A3AAA3BBA320E030E04AE776
:1003A00055E468A179A18AA19BA10E94C404DC0143
:1003B000CB018CA39DA3AEA3BFA320E030E040E817
:1003C0005FE36CA17DA18EA19FA10E9407068823F7
:1003D0002CF481E090E099A788A742C020E03FEF8D
:1003E0004FE757E46CA17DA18EA19FA10E94A905B2
:1003F000181664F520E030E040E251E468A179A1EC
:100400008AA19BA10E94C404DC01CB01BC01CD01E7
:100410000E94DF02DC01CB0199A788A712C080E906
:1004200091E09BA78AA78AA59BA58C01C80101978B
:10043000F1F78C011BA70AA788A599A5019799A791
:1004400088A788A599A5009751F717C06CA17DA131
:100450008EA19FA10E94DF02DC01CB0199A788A792
:1004600088A599A59DA78CA78CA59DA58C01F801B1
:100470003197F1F78F011DA70CA785E390E027E0E6
:10048000FC0120832BE330E08A819B814AE050E02D
:10049000BA010E941F0880509F4FFC018081F90122
:1004A000808380E090E0A0EAB0E48EA79FA7A8AB8D
:1004B000B9AB20E030E04AE755E46EA57FA588A9F6
:1004C00099A90E94C404DC01CB018AAB9BABACAB05
:1004D000BDAB20E030E040E85FE36AA97BA98CA9CE
:1004E0009DA90E94070688232CF481E090E09FAB31
:1004F0008EAB42C020E03FEF4FE757E46AA97BA9EB
:100500008CA99DA90E94A905181664F520E030E089
:1005100040E251E46EA57FA588A999A90E94C40470
:10052000DC01CB01BC01CD010E94DF02DC01CB016B
:100530009FAB8EAB12C080E991E099AF88AF88ADD8
:1005400099AD8C01C8010197F1F78C0119AF08AF83
:100550008EA99FA901979FAB8EAB8EA99FA90097EB
:1005600051F717C06AA97BA98CA99DA90E94DF0237
:10057000DC01CB019FAB8EAB8EA99FA99BAF8AAF4D
:100580008AAD9BAD8C01F8013197F1F78F011BAF5C
:100590000AAF89818F5F89838981823308F4B4CD62
:1005A0008A819B8101969B838A838A819B8180318A
:1005B000F7E29F070CF4A5CD1B821A82A2CDCF9241
:1005C000DF92EF92FF920F931F936B017C0120E06B
:1005D00030E040E05FE40E94D80587FD0EC020E0D7
:1005E00030E040E05FE4C701B6010E9494040E943D
:1005F00036068B019C01305806C0C701B6010E9427
:1006000036068B019C01B801C9011F910F91FF9023
:10061000EF90DF90CF900895A4E0B0E0E2E1F3E046
:100620000C9449087C016A01FC018081823008F445
:100630004AC1FB019081923008F442C1843079F4C0
:10064000943009F040C1F7019181FB018181981735
:1006500009F439C1A0E1EA2EA1E0FA2E34C19430A8
:1006600009F42EC1923091F4823009F02CC188E057
:10067000F701DA0101900D928A95E1F7FB01818182
:10068000F70191818923FA0181831CC1823009F429
:1006900017C1F70182819381FB01A281B381F70128
:1006A0000481158126813781FB0184809580A68095
:1006B000B780FC01EA1BFB0BAF01F7FF04C0442726
:1006C00055274E1B5F0B403251050CF074C01E16AF
:1006D0001F06B4F524013501042E04C076946794F6
:1006E000579447940A94D2F749825A826B827C824B
:1006F000412C512C3201439404C0440C551C661CFF
:10070000771C4A95D2F741E0441A510861087108F4
:10071000482059206A207B20812C912C54018394FD
:1007200045284628472819F4812C912C54014980EA
:100730005A806B807C8084289528A628B72846C0DC
:10074000EF2B09F443C0840F951F28013901042EB3
:1007500004C076946794579447940A94D2F74982D8
:100760005A826B827C82412C512C3201439404C00A
:10077000440C551C661C771C4A95D2F741E0441A7C
:10078000510861087108402251226222732201E05F
:1007900010E020E030E045284628472819F400E022
:1007A00010E0980149805A806B807C8004291529CB
:1007B000262937290BC0A817B90724F4812C912CBE
:1007C000540104C0CD0100E010E09801F70141811F
:1007D000FB015181451709F446C0442349F0240127
:1007E0003501401A510A620A730A9301820104C05A
:1007F000081919092A093B0937FD05C0F6011182BC
:10080000938382830CC041E0F6014183938382830A
:1008100030952095109501951F4F2F4F3F4F048322
:100820001583268337830EC0880F991FAA1FBB1F0D
:10083000F60184839583A683B78382819381019790
:1008400093838283F60184819581A681B781AC016F
:10085000BD0141505109610971094F3F5F4F6F4F11
:100860007F4310F30CC0F601418393838283080D0C
:10087000191D2A1D3B1D048315832683378383E0BE
:10088000F6018083448155816681778177FF1AC0A4
:10089000DB01CA0181709927AA27BB277695679546
:1008A00057954795842B952BA62BB72B848395833F
:1008B000A683B7838281938101969383828302C04A
:1008C0007B0101C07601C7012496E0E10C94650824
:1008D000A0E2B0E0EEE6F4E00C9457086D8F7E8F56
:1008E0008F8F98A3298F3A8F4B8F5C8FBE016F5EDD
:1008F0007F4FCE014D960E944F07BE01675F7F4F2D
:10090000CE0149960E944F07AE014F5F5F4FBE0177
:10091000675F7F4FCE0141960E940C030E948506BF
:10092000A096E2E00C947308A0E2B0E0EAE9F4E0FB
:100930000C9457086D8F7E8F8F8F98A3298F3A8FD5
:100940004B8F5C8FBE016F5E7F4FCE014D960E9434
:100950004F07BE01675F7F4FCE0149960E944F0748
:100960008A8591E089278A87AE014F5F5F4FBE017C
:10097000675F7F4FCE0141960E940C030E9485065F
:10098000A096E2E00C947308A0E2B0E0EAECF4E098
:100990000C9449086D8F7E8F8F8F98A3298F3A8F83
:1009A0004B8F5C8FBE016F5E7F4FCE014D960E94D4
:1009B0004F07BE01675F7F4FCE0149960E944F07E8
:1009C0009989923008F412C08985823008F41AC0DF
:1009D000943021F4823009F4B4C008C0843021F48A
:1009E000923009F4AEC00EC0923051F481E02A89F1
:1009F0009A85291301C080E08A8BCE014196A3C05D
:100A0000823051F481E02A899A85291301C080E05F
:100A10008A87CE01099697C08D889E88AF88B88C4A
:100A20000D851E852F853889E0E2F0E080E090E0BA
:100A3000DC01C12CD12C760140E050E0BA0180FEEF
:100A400018C0400F511F621F731F8C0D9D1DAE1DDE
:100A5000BF1D412C512C32014394401751076207AE
:100A6000730718F0412C512C3201840D951DA61DE1
:100A7000B71DCC0CDD1CEE1CFF1C37FF02C06894B8
:100A8000C0F8000F111F221F331FB694A79497942C
:100A900087943197A1F62B893C89EB85FC852E0F35
:100AA0003F1F2E5F3F4F3C832B8321E0EA893A852D
:100AB000E31301C020E02A83EB81FC810CC080FF9E
:100AC00005C076956795579547957068B695A79533
:100AD000979587953196B7FDF2CF9F010CC0880F8F
:100AE000991FAA1FBB1F77FD8160440F551F661F0A
:100AF000771F215031090097A105E0E4BE0778F384
:100B00002B833C838C019D010F77112722273327EC
:100B1000003411052105310559F487FD09C0452B25
:100B2000462B472B29F0805C9F4FAF4FBF4F8078FB
:100B30008D839E83AF83B88783E08983CE0101963E
:100B400002C080E191E00E948506A096E0E10C944D
:100B50006508A8E1B0E0EFEAF5E00C9457086D8B6A
:100B60007E8B8F8B988F298B3A8B4B8B5C8BBE0146
:100B7000675F7F4FCE0145960E944F07BE016F5FB2
:100B80007F4FCE0141960E944F078985823058F0F1
:100B90008981823040F0BE016F5F7F4FCE010996A0
:100BA0000E94BE0701C08FEF6896E2E00C947308C4
:100BB000A8E1B0E0EEEDF5E00C9457086D8B7E8B6C
:100BC0008F8B988F298B3A8B4B8B5C8BBE01675F29
:100BD0007F4FCE0145960E944F07BE016F5F7F4F4A
:100BE000CE0141960E944F078985823058F0898155
:100BF000823040F0BE016F5F7F4FCE0109960E94A8
:100C0000BE0701C08FEF6896E2E00C947308A8E17C
:100C1000B0E0EDE0F6E00C9457086D8B7E8B8F8B87
:100C2000988F298B3A8B4B8B5C8BBE01675F7F4F14
:100C3000CE0145960E944F07BE016F5F7F4FCE01E8
:100C400041960E944F078985823058F08981823011
:100C500040F0BE016F5F7F4FCE0109960E94BE0734
:100C600001C081E06896E2E00C947308ACE0B0E06B
:100C7000ECE3F6E00C94550869877A878B879C87AC
:100C8000BE016F5F7F4FCE0109960E944F07898199
:100C9000823091F1823080F1843041F48A8188235E
:100CA00031F100E010E020E030E829C02B813C81E8
:100CB00037FD22C02F3131058CF78EE190E0821B89
:100CC000930B0D811E812F81388504C036952795A1
:100CD000179507958A95D2F78A81882381F03095F8
:100CE0002095109501951F4F2F4F3F4F08C00FEFD4
:100CF0001FEF2FEF3FE703C000E010E09801B801BD
:100D0000C9012C96E4E00C9471080F931F93CF93C4
:100D1000DF93DC0114964D915D916D917C91179755
:100D20001196EC9111978C91823020F460618FEFD5
:100D300090E0A6C0843009F49EC0823009F495C0CA
:100D4000411551056105710509F492C012962D9166
:100D50003C91139722388FEF38070CF058C0C2E847
:100D6000DFEFC21BD30BCA31D1056CF58A019B01A1
:100D70000C2E04C036952795179507950A94D2F73F
:100D800081E090E0A0E0B0E00C2E04C0880F991F35
:100D9000AA1FBB1F0A94D2F70197A109B1098423A6
:100DA0009523A623B72341E050E060E070E0892B53
:100DB0008A2B8B2B19F440E050E0BA01402B512BC9
:100DC000622B732B03C040E050E0BA01DB01CA0183
:100DD0008F779927AA27BB2780349105A105B105F4
:100DE00039F447FF09C0405C5F4F6F4F7F4F04C02D
:100DF000415C5F4F6F4F7F4F81E090E0411551059F
:100E0000610520E4720748F580E090E026C02038B4
:100E100031058CF5DB01CA018F779927AA27BB27FB
:100E200080349105A105B10539F447FF09C0405C44
:100E30005F4F6F4F7F4F04C0415C5F4F6F4F7F4FDD
:100E400077FD04C0C90181589F4F07C0769567950B
:100E500057954795C90180589F4F97E076956795BC
:100E6000579547959A95D1F70BC080E090E005C063
:100E700080E090E005C08FEF90E040E050E0BA01E4
:100E8000982F9695E0FB97F9362F80FB37F9642F62
:100E9000752F832FDF91CF911F910F910895CF92DE
:100EA000DF92EF92DC01FB01CC901196DC90119760
:100EB00012968C9112973FE7E32EE8226E2DA60141
:100EC00070E0982F991F9927991F13962C91822FC4
:100ED000880F892B90E027FB222720F92183009798
:100EE00029F5411551056105710511F482E027C00E
:100EF00082E89FEF9383828327E0440F551F661F8C
:100F0000771F2A95D1F783E0808309C0440F551FCE
:100F1000661F771F82819381019793838283411596
:100F20005105610580E4780788F320C08F3F910563
:100F300079F4411551056105710519F484E0808348
:100F400019C0E4FE03C081E0808310C010820EC08F
:100F50008F5791099383828383E0808387E0440FD6
:100F6000551F661F771F8A95D1F770644483558398
:100F700066837783EF90DF90CF900895CF93FC0145
:100F8000DB019081923008F452C08C91823008F4D9
:100F90004EC0943071F4843039F411962C9130E0C5
:100FA0008181281B310948C08181882309F43FC011
:100FB0003BC0843029F411968C91811138C034C023
:100FC000923019F48230B9F735C0823069F3C181AB
:100FD00011968C911197C8131DC0228133811296EE
:100FE0008D919C911397821793070CF413C02817C7
:100FF00039070CF417C044815581668177811496B6
:101000008D919D910D90BC91A02D84179507A607F9
:10101000B70718F4C11108C00AC0481759076A0772
:101020007B0740F4C11103C02FEF3FEF05C021E063
:1010300030E002C020E030E0C901CF91089597FB75
:10104000072E16F4009407D077FD09D00E943308CC
:1010500007FC05D03EF4909581959F4F08957095BB
:1010600061957F4F0895AA1BBB1B51E107C0AA1FC2
:10107000BB1FA617B70710F0A61BB70B881F991F39
:101080005A95A9F780959095BC01CD0108952F92AE
:101090003F924F925F926F927F928F929F92AF9208
:1010A000BF92CF92DF92EF92FF920F931F93CF9355
:1010B000DF93CDB7DEB7CA1BDB0B0FB6F894DEBFEC
:1010C0000FBECDBF09942A88398848885F846E8412
:1010D0007D848C849B84AA84B984C884DF80EE805C
:1010E000FD800C811B81AA81B981CE0FD11D0FB665
:1010F000F894DEBF0FBECDBFED010895F894FFCF89
:101100003F065B4F666D7D277F6F777C395E797117
:081110000000000000000000D7
:00000001FF
