:100000000C9446000C9465000C9465000C946500FB
:100010000C9465000C9465000C9495000C947E0083
:100020000C9467000C9465000C9465000C946500BA
:100030000C9465000C9465000C9465000C946500AC
:100040000C9465000C9465000C9465000C9465009C
:100050000C9465000C9465000C9465000C9465008C
:100060000C9465000C9465000C9465000C9465007C
:100070000C9465000C9465000C9465000C9465006C
:100080000C9465000C9465000C94650011241FBE4F
:10009000CFEFD0E1DEBFCDBF11E0A0E0B1E0E6E3FD
:1000A000F2E100E00BBF02C007900D92A231B10750
:1000B000D9F721E0A2E1B1E001C01D92A631B2075B
:1000C000E1F70E94B2000C9419090C9400001F92F1
:1000D0000F9200905F000F9211248F93CF93DF93C4
:1000E000CDB7DEB787E080931501DF91CF918F9177
:1000F0000F9000925F000F901F9018951F920F9223
:1001000000905F000F9211248F93CF93DF93CDB7B0
:10011000DEB786E080931501DF91CF918F910F902C
:1001200000925F000F901F9018951F920F92009001
:100130005F000F9211248F93CF93DF93CDB7DEB77B
:1001400085E0809315011092120110921401109213
:100150001301DF91CF918F910F9000925F000F906C
:100160001F9018950F931F93CF93DF93CDB7DEB7F2
:10017000C354D1090FB6F894DEBF0FBECDBF8AE0DD
:10018000E0E0F1E0DE01DA9601900D928A95E1F768
:100190008AE390E02FEFFC01208384E390E02FE0DE
:1001A000FC01208382E290E0FC01108289E590E06E
:1001B00020EEFC0120838AE590E02CEFFC012083F7
:1001C000789401C0000019826AC285E390E02EE0B5
:1001D000FC0120832BE330E0909112018DEC989F7D
:1001E000812D1124982F9695969596958DEC989F34
:1001F000812D1124869586958695880F482F440F6A
:10020000440F840FF92FF81B8F2F882F90E0AE0139
:10021000465C5F4F840F951FFC018081F90180834C
:1002200080E090E0A0EAB0E48A839B83AC83BD8346
:1002300020E030E04AE755E46A817B818C819D8132
:100240000E945F05DC01CB018E839F83A887B9875D
:1002500020E030E040E85FE36E817F81888599850A
:100260000E94A20688232CF481E090E09B878A8775
:1002700042C020E03FEF4FE757E46E817F818885E1
:1002800099850E944406181664F520E030E040E2AB
:1002900051E46A817B818C819D810E945F05DC0134
:1002A000CB01BC01CD010E947A03DC01CB019B870D
:1002B0008A8712C080E991E09D878C878C859D8517
:1002C0008C01C8010197F1F78C011D870C878A8585
:1002D0009B8501979B878A878A859B85009751F725
:1002E00017C06E817F81888599850E947A03DC0121
:1002F000CB019B878A878A859B859F878E878E8582
:100300009F858C01F8013197F1F78F011F870E87C8
:1003100085E390E02DE0FC0120832BE330E0909119
:1003200012018DEC989F812D1124869586958695D6
:10033000880F482F440F440F840FF92FF81B8F2F7D
:10034000882F90E0AE01465C5F4F840F951FFC0143
:100350008081F901808380E090E0A0EAB0E4888B9E
:10036000998BAA8BBB8B20E030E04AE755E4688983
:1003700079898A899B890E945F05DC01CB018C8B7E
:100380009D8BAE8BBF8B20E030E040E85FE36C8953
:100390007D898E899F890E94A20688232CF481E0A2
:1003A00090E0998F888F42C020E03FEF4FE757E4FD
:1003B0006C897D898E899F890E944406181664F590
:1003C00020E030E040E251E4688979898A899B899C
:1003D0000E945F05DC01CB01BC01CD010E947A03C4
:1003E000DC01CB01998F888F12C080E991E09B8F4F
:1003F0008A8F8A8D9B8D8C01C8010197F1F78C0142
:100400001B8F0A8F888D998D0197998F888F888D82
:10041000998D009751F717C06C897D898E899F89C6
:100420000E947A03DC01CB01998F888F888D998D8A
:100430009D8F8C8F8C8D9D8D8C01F8013197F1F7FC
:100440008F011D8F0C8F85E390E02BE0FC01208352
:100450002BE330E080911301909114014AE050E0C9
:10046000BA010E94BA08AB01CA014AE050E0BA01E1
:100470000E94BA08AE01465C5F4F840F951FFC01D5
:100480008081F901808380E090E0A0EAB0E48E8F63
:100490009F8FA8A3B9A320E030E04AE755E46E8D12
:1004A0007F8D88A199A10E945F05DC01CB018AA301
:1004B0009BA3ACA3BDA320E030E040E85FE36AA1CA
:1004C0007BA18CA19DA10E94A20688232CF481E02F
:1004D00090E09FA38EA342C020E03FEF4FE757E498
:1004E0006AA17BA18CA19DA10E944406181664F507
:1004F00020E030E040E251E46E8D7F8D88A199A12B
:100500000E945F05DC01CB01BC01CD010E947A0392
:10051000DC01CB019FA38EA312C080E991E099A7D3
:1005200088A788A599A58C01C8010197F1F78C01CE
:1005300019A708A78EA19FA101979FA38EA38EA1A3
:100540009FA1009751F717C06AA17BA18CA19DA123
:100550000E947A03DC01CB019FA38EA38EA19FA1F1
:100560009BA78AA78AA59BA58C01F8013197F1F773
:100570008F011BA70AA785E390E027E0FC012083F9
:100580002BE330E080911301909114014AE050E098
:10059000BA010E94BA08AE01465C5F4F840F951FF6
:1005A000FC018081F901808380E090E0A0EAB0E462
:1005B0008CA79DA7AEA7BFA720E030E04AE755E48F
:1005C0006CA57DA58EA59FA50E945F05DC01CB01D2
:1005D00088AB99ABAAABBBAB20E030E040E85FE36F
:1005E00068A979A98AA99BA90E94A20688232CF44C
:1005F00081E090E09DAB8CAB42C020E03FEF4FE745
:1006000057E468A979A98AA99BA90E9444061816EB
:1006100064F520E030E040E251E46CA57DA58EA5B4
:100620009FA50E945F05DC01CB01BC01CD010E94AA
:100630007A03DC01CB019DAB8CAB12C080E991E069
:100640009FAB8EAB8EA99FA98C01C8010197F1F7D2
:100650008C011FAB0EAB8CA99DA901979DAB8CABF8
:100660008CA99DA9009751F717C068A979A98AA9F3
:100670009BA90E947A03DC01CB019DAB8CAB8CA9BA
:100680009DA999AF88AF88AD99AD8C01F8013197DC
:10069000F1F78F0119AF08AF89818F5F8983898155
:1006A000823308F492CD80911501873009F08ACD0C
:1006B00080911301909114010196909314018093FD
:1006C000130180911301909114018C3391050CF466
:1006D00079CD1092140110921301809112018F5F55
:1006E00080931201809112018C3308F46BCD10922B
:1006F000120168CDCF92DF92EF92FF920F931F937A
:100700006B017C0120E030E040E05FE40E94730672
:1007100087FD0EC020E030E040E05FE4C701B60195
:100720000E942F050E94D1068B019C01305806C003
:10073000C701B6010E94D1068B019C01B801C90115
:100740001F910F91FF90EF90DF90CF900895A4E05C
:10075000B0E0EDEAF3E00C94E4087C016A01FC01EE
:100760008081823008F44AC1FB019081923008F404
:1007700042C1843079F4943009F040C1F70191818D
:10078000FB018181981709F439C1AAE0EA2EA1E0A2
:10079000FA2E34C1943009F42EC1923091F4823093
:1007A00009F02CC188E0F701DA0101900D928A95D9
:1007B000E1F7FB018181F70191818923FA018183AE
:1007C0001CC1823009F417C1F70182819381FB01BA
:1007D000A281B381F7010481158126813781FB0154
:1007E00084809580A680B780FC01EA1BFB0BAF01DB
:1007F000F7FF04C0442755274E1B5F0B40325105BD
:100800000CF074C01E161F06B4F524013501042E29
:1008100004C076946794579447940A94D2F7498217
:100820005A826B827C82412C512C3201439404C049
:10083000440C551C661C771C4A95D2F741E0441ABB
:10084000510861087108482059206A207B20812CBA
:10085000912C5401839445284628472819F4812C6B
:10086000912C540149805A806B807C808428952883
:10087000A628B72846C0EF2B09F443C0840F951F64
:1008800028013901042E04C0769467945794479444
:100890000A94D2F749825A826B827C82412C512C75
:1008A0003201439404C0440C551C661C771C4A95C5
:1008B000D2F741E0441A51086108710840225122E0
:1008C0006222732201E010E020E030E04528462853
:1008D000472819F400E010E0980149805A806B80A5
:1008E0007C8004291529262937290BC0A817B907A8
:1008F00024F4812C912C540104C0CD0100E010E0BF
:100900009801F7014181FB015181451709F446C067
:10091000442349F024013501401A510A620A730A3E
:100920009301820104C0081919092A093B0937FDFE
:1009300005C0F6011182938382830CC041E0F60169
:1009400041839383828330952095109501951F4FA5
:100950002F4F3F4F04831583268337830EC0880FA4
:10096000991FAA1FBB1FF60184839583A683B783B3
:1009700082819381019793838283F601848195819B
:10098000A681B781AC01BD014150510961097109CE
:100990004F3F5F4F6F4F7F4310F30CC0F601418311
:1009A00093838283080D191D2A1D3B1D0483158323
:1009B0002683378383E0F6018083448155816681F5
:1009C000778177FF1AC0DB01CA0181709927AA27B6
:1009D000BB277695679557954795842B952BA62B26
:1009E000B72B84839583A683B783828193810196F5
:1009F0009383828302C07B0101C07601C7012496E4
:100A0000E0E10C940009A0E2B0E0E9E0F5E00C942C
:100A1000F2086D8F7E8F8F8F98A3298F3A8F4B8F1F
:100A20005C8FBE016F5E7F4FCE014D960E94EA073C
:100A3000BE01675F7F4FCE0149960E94EA07AE0173
:100A40004F5F5F4FBE01675F7F4FCE0141960E94AF
:100A5000A7030E942007A096E2E00C940E09A0E2F2
:100A6000B0E0E5E3F5E00C94F2086D8F7E8F8F8F98
:100A700098A3298F3A8F4B8F5C8FBE016F5E7F4F9B
:100A8000CE014D960E94EA07BE01675F7F4FCE01FF
:100A900049960E94EA078A8591E089278A87AE01F4
:100AA0004F5F5F4FBE01675F7F4FCE0141960E944F
:100AB000A7030E942007A096E2E00C940E09A0E292
:100AC000B0E0E5E6F5E00C94E4086D8F7E8F8F8F43
:100AD00098A3298F3A8F4B8F5C8FBE016F5E7F4F3B
:100AE000CE014D960E94EA07BE01675F7F4FCE019F
:100AF00049960E94EA079989923008F412C08985C4
:100B0000823008F41AC0943021F4823009F4B4C061
:100B100008C0843021F4923009F4AEC00EC0923087
:100B200051F481E02A899A85291301C080E08A8BDB
:100B3000CE014196A3C0823051F481E02A899A8582
:100B4000291301C080E08A87CE01099697C08D885D
:100B50009E88AF88B88C0D851E852F853889E0E288
:100B6000F0E080E090E0DC01C12CD12C760140E087
:100B700050E0BA0180FE18C0400F511F621F731F62
:100B80008C0D9D1DAE1DBF1D412C512C3201439477
:100B9000401751076207730718F0412C512C32019E
:100BA000840D951DA61DB71DCC0CDD1CEE1CFF1C75
:100BB00037FF02C06894C0F8000F111F221F331FB7
:100BC000B694A794979487943197A1F62B893C8982
:100BD000EB85FC852E0F3F1F2E5F3F4F3C832B8301
:100BE00021E0EA893A85E31301C020E02A83EB8102
:100BF000FC810CC080FF05C0769567955795479599
:100C00007068B695A795979587953196B7FDF2CF01
:100C10009F010CC0880F991FAA1FBB1F77FD816021
:100C2000440F551F661F771F215031090097A105FA
:100C3000E0E4BE0778F32B833C838C019D010F77A2
:100C4000112722273327003411052105310559F4D6
:100C500087FD09C0452B462B472B29F0805C9F4F11
:100C6000AF4FBF4F80788D839E83AF83B88783E07B
:100C70008983CE01019602C08AE091E00E9420079C
:100C8000A096E0E10C940009A8E1B0E0EAE4F6E007
:100C90000C94F2086D8B7E8B8F8B988F298B3A8BFF
:100CA0004B8B5C8BBE01675F7F4FCE0145960E94E8
:100CB000EA07BE016F5F7F4FCE0141960E94EA07AF
:100CC0008985823058F08981823040F0BE016F5FA3
:100CD0007F4FCE0109960E94590801C08FEF689698
:100CE000E2E00C940E09A8E1B0E0E9E7F6E00C942C
:100CF000F2086D8B7E8B8F8B988F298B3A8B4B8B69
:100D00005C8BBE01675F7F4FCE0145960E94EA076C
:100D1000BE016F5F7F4FCE0141960E94EA07898531
:100D2000823058F08981823040F0BE016F5F7F4F82
:100D3000CE0109960E94590801C08FEF6896E2E043
:100D40000C940E09A8E1B0E0E8EAF6E00C94F20891
:100D50006D8B7E8B8F8B988F298B3A8B4B8B5C8B1B
:100D6000BE01675F7F4FCE0145960E94EA07BE0134
:100D70006F5F7F4FCE0141960E94EA0789858230DE
:100D800058F08981823040F0BE016F5F7F4FCE0105
:100D900009960E94590801C081E06896E2E00C942F
:100DA0000E09ACE0B0E0E7EDF6E00C94F0086987DE
:100DB0007A878B879C87BE016F5F7F4FCE01099634
:100DC0000E94EA078981823091F1823080F184307B
:100DD00041F48A81882331F100E010E020E030E81E
:100DE00029C02B813C8137FD22C02F3131058CF782
:100DF0008EE190E0821B930B0D811E812F8138853F
:100E000004C036952795179507958A95D2F78A815C
:100E1000882381F030952095109501951F4F2F4F15
:100E20003F4F08C00FEF1FEF2FEF3FE703C000E079
:100E300010E09801B801C9012C96E4E00C940C096B
:100E40000F931F93CF93DF93DC0114964D915D9127
:100E50006D917C9117971196EC9111978C9182303E
:100E600020F460618FEF90E0A6C0843009F49EC04A
:100E7000823009F495C0411551056105710509F4E9
:100E800092C012962D913C91139722388FEF38071C
:100E90000CF058C0C2E8DFEFC21BD30BCA31D1053A
:100EA0006CF58A019B010C2E04C036952795179589
:100EB00007950A94D2F781E090E0A0E0B0E00C2E14
:100EC00004C0880F991FAA1FBB1F0A94D2F701976D
:100ED000A109B10984239523A623B72341E050E05B
:100EE00060E070E0892B8A2B8B2B19F440E050E0F6
:100EF000BA01402B512B622B732B03C040E050E012
:100F0000BA01DB01CA018F779927AA27BB27803452
:100F10009105A105B10539F447FF09C0405C5F4F59
:100F20006F4F7F4F04C0415C5F4F6F4F7F4F81E039
:100F300090E041155105610520E4720748F580E015
:100F400090E026C0203831058CF5DB01CA018F778F
:100F50009927AA27BB2780349105A105B10539F44B
:100F600047FF09C0405C5F4F6F4F7F4F04C0415C3B
:100F70005F4F6F4F7F4F77FD04C0C90181589F4F6E
:100F800007C07695679557954795C90180589F4F3B
:100F900097E076956795579547959A95D1F70BC049
:100FA00080E090E005C080E090E005C08FEF90E029
:100FB00040E050E0BA01982F9695E0FB97F9362F64
:100FC00080FB37F9642F752F832FDF91CF911F910D
:100FD0000F910895CF92DF92EF92DC01FB01CC904C
:100FE0001196DC90119712968C9112973FE7E32EA1
:100FF000E8226E2DA60170E0982F991F9927991F5E
:1010000013962C91822F880F892B90E027FB2227A3
:1010100020F92183009729F54115510561057105D6
:1010200011F482E027C082E89FEF9383828327E058
:10103000440F551F661F771F2A95D1F783E08083E1
:1010400009C0440F551F661F771F82819381019746
:101050009383828341155105610580E4780788F305
:1010600020C08F3F910579F4411551056105710547
:1010700019F484E0808319C0E4FE03C081E080831A
:1010800010C010820EC08F5791099383828383E032
:10109000808387E0440F551F661F771F8A95D1F71D
:1010A00070644483558366837783EF90DF90CF909D
:1010B0000895CF93FC01DB019081923008F452C077
:1010C0008C91823008F44EC0943071F4843039F43D
:1010D00011962C9130E08181281B310948C0818113
:1010E000882309F43FC03BC0843029F411968C91C9
:1010F000811138C034C0923019F48230B9F735C04C
:10110000823069F3C18111968C911197C8131DC06B
:101110002281338112968D919C91139782179307A8
:101120000CF413C0281739070CF417C044815581FB
:101130006681778114968D919D910D90BC91A02D23
:1011400084179507A607B70718F4C11108C00AC08D
:10115000481759076A077B0740F4C11103C02FEFF6
:101160003FEF05C021E030E002C020E030E0C901DF
:10117000CF91089597FB072E16F4009407D077FDC2
:1011800009D00E94CE0807FC05D03EF490958195C9
:101190009F4F0895709561957F4F0895AA1BBB1BC3
:1011A00051E107C0AA1FBB1FA617B70710F0A61B67
:1011B000B70B881F991F5A95A9F780959095BC0188
:1011C000CD0108952F923F924F925F926F927F923E
:1011D0008F929F92AF92BF92CF92DF92EF92FF9247
:1011E0000F931F93CF93DF93CDB7DEB7CA1BDB0BF3
:1011F0000FB6F894DEBF0FBECDBF09942A88398898
:1012000048885F846E847D848C849B84AA84B9849E
:10121000C884DF80EE80FD800C811B81AA81B981AA
:10122000CE0FD11D0FB6F894DEBF0FBECDBFED01BE
:061230000895F894FFCFC1
:101236003F065B4F666D7D277F6F00000000000054
:021246000000A6
:00000001FF
